:060000000A128A11DA2C3D
:100952002830831203139400080004308316031313
:1009620091000800F00070088312031393008C1D9D
:10097200BB2CBC2CB82C8C1108000130831603133D
:10098200910083128C1DC62CC72CC22C8C1108001E
:100992007E088A007F088200C9240A128A11800018
:1009A200840A04087D0603190034FF0A0319FE0AAB
:1009B200CD2C83133430FD000530FE00A530FF003E
:1009C2002D3084000A128A11CD240A128A11830161
:1009D2000A128A11342F08308316031391008312EE
:1009E2008C1DF42CF52CF02C10308316031391007F
:1009F20083128C1DFD2CFE2CF92C13080800FE001E
:100A0200FE1F082D83137E188317000808000408B0
:100A1200FE0005308A007E088207003444344134E7
:100A2200543420340034543449344D3420340034A6
:100A32005434553445340034573445344434003446
:100A4200463452344934003453344134543400343B
:100A520054344834553400344D344F344E34003419
:100A6200533455344E34003403100030031801302F
:100A720083160313880002300A128A114C260A12C6
:100A82008A1128300A128A114C260A128A1106305B
:100A92000A128A114C260A128A110C300A128A1181
:100AA2004C260A128A1141300A128A11FD250A12B5
:100AB2008A110800F2006C2D72080A128A110925A7
:100AC2000A128A110A128A11FD250A128A110130AC
:100AD200F1007108F20772080A128A1109250A1236
:100AE2008A110038031D762D772D5D2D0800F20046
:100AF2007208F10004300310F10CFF3E031D7C2D3F
:100B02007108303E0A128A11FD250A128A117208F2
:100B12000F39303E0A128A11FD250A128A11080085
:100B2200083083160313910083128C1D992D9A2D80
:100B3200952D303083160313910083128C1DA22D44
:100B4200A32D9E2D130808005634043404340234B5
:060B5200053406340734EF
:100B5E00F30073080739F300E52D23300A128A11CA
:100B6E005B250A128A11FC2D1F300A128A115B2591
:100B7E000A128A11FC2D0B300A128A115B250A12F9
:100B8E008A11FC2D0F300A128A115B250A128A1166
:100B9E00FC2D1B300A128A115B250A128A11FC2DBC
:100BAE0013300A128A115B250A128A11FC2D173096
:100BBE000A128A115B250A128A11FC2D7308003A5B
:100BCE000319B42D013A0319BB2D033A0319C22D93
:100BDE00013A0319C92D073A0319D02D013A031909
:100BEE00D72D033A0319DE2DFC2D080083120313B3
:100BFE00A000F430A1000130A2002008F0398800D6
:100C0E000814FD30F000700888050815FF30A107A4
:100C1E000318A20AFF30A207FF302206031D192E69
:100C2E00FF302106031D1C2E1D2E0D2EFB30F00055
:100C3E00700888053230A1000030A20020080F395C
:100C4E00F00003300310F00DFF3E031D292E03109C
:100C5E00700D88000814FD30F00070088805081526
:100C6E00FF30A1070318A20AFF30A207FF302206A9
:100C7E00031D432EFF302106031D462E472E372E11
:100C8E00FB30F000700888050800F1003230F200E9
:100C9E000030F3007108F039831203138800FE3020
:100CAE00F00070088805FD30F00070088805081502
:100CBE00FF30F2070318F30AFF30F307FF30730615
:100CCE00031D6B2EFF307206031D6E2E6F2E5F2ED0
:100CDE00FB30F000700888053230F2000030F3006F
:100CEE0071080F39F00003300310F00DFF3E031DA5
:100CFE007B2E0310700D8800FE30F0007008880502
:100D0E00FD30F000700888050815FF30F207031853
:100D1E00F30AFF30F307FF307306031D982EFF30E2
:100D2E007206031D9B2E9C2E8C2EFB30F00070083D
:100D3E008805080083120313A30080300A128A115B
:100D4E004C260A128A1106300A128A115B250A12E3
:100D5E008A11831203132308023E840083130008B2
:100D6E000A128A1178250A128A113A300A128A1149
:100D7E00FD250A128A11831203132308013E8400F3
:100D8E00831300080A128A1178250A128A113A3042
:100D9E000A128A11FD250A128A11831203132308DF
:100DAE008400831300080A128A1178250A128A1108
:100DBE0020300A128A11FD250A128A11831203139A
:100DCE002308033E8400831300080A128A11AF25FC
:100DDE000A128A11C0300A128A114C260A128A117E
:100DEE0001300A128A115B250A128A11831203132B
:100DFE002308043E8400831300080A128A11782502
:100E0E000A128A112F300A128A11FD250A128A112E
:100E1E00831203132308053E8400831300080A126D
:100E2E008A1178250A128A112F300A128A11FD258D
:100E3E000A128A11831203132308063E84008313B9
:100E4E0000080A128A1178250A128A1180300A12B5
:100E5E008A114C260A128A110800243084002D3083
:100E6E00F4000408F5000730F600740884008313BC
:100E7E000008F700F40A7508840077088000F50A68
:100E8E00F60B3C2F0A128A1135250A128A110A1204
:100E9E008A11A9240A128A110A128A11BE240A1270
:100EAE008A11D0300A128A11B3240A128A11003024
:100EBE000A128A11B3240A128A1100308312031304
:100ECE00AB000030AC00831203132B08243E8400C9
:100EDE00831300080A128A11B3240A128A110130F0
:100EEE0083120313AB070318AC0A0030AC072C08AF
:100EFE00803AF40080307402031D872F07302B02D6
:100F0E00031C8A2F8B2F6A2F0A128A11AE240A1203
:100F1E008A110A128A11BE240A128A11D0300A12BC
:100F2E008A11B3240A128A1100300A128A11B324CC
:100F3E000A128A110A128A11AE240A128A110A1290
:100F4E008A11BE240A128A11D1300A128A11B324D0
:100F5E000A128A11003083120313AB000030AC006A
:100F6E000630831203132B062C04031DBF2FC02F34
:100F7E00CF2F0A128A1191250A128A11F4008312B8
:100F8E0003132B08243E8400740883138000DD2F86
:100F9E000A128A11EC240A128A11F4008312031326
:100FAE002B08243E84007408831380000130AB07A5
:100FBE000318AC0A0030AC072C08803AF4008030DD
:100FCE007402031DEC2F07302B02031CEF2FF02FA2
:100FDE00B72F0A128A11AE240A128A1124300A126D
:100FEE008A11A1260A128A11902FFC2F0A128A1139
:020FFE000028C9
:00000001FF
