:060000000A128A11AA2F6A
:100F540083010A128A11C92FF00070088312031347
:100F640093008C1DB62FB72FB32F8C1113080800D4
:100F740080308316031394002030831203139400EB
:100F8400D730F00070088316031387050800031098
:100F94000030031801308316031388000310003057
:100FA400031801308312031388000A128A11BA2726
:100FB4000A128A110030F2000030F3000130F20707
:100FC4000318F30A0030F3077308803AF1009330F2
:100FD4007102031DEF2F88307202031CF22FF32FCE
:100FE400E02F42300A128A11AE270A128A118312A4
:0C0FF40003138800DC2F0A128A11002869
:02400E003B3A3B
:00000001FF
