:060000000A128A117E2C99
:1008FC0083010A128A11D62C8030831603139F00B1
:10090C000130831203139F00080005308312031378
:10091C009F001F080439013A0319952C962C8F2C33
:10092C001E08F000F1010830F2000310F00DF10D7B
:10093C00F20B9B2C831603131E087004F300710832
:10094C00F400740883120313A101A1077308A0011A
:10095C00A00708000310003003180130831603139E
:10096C00860002300A128A11A5250A128A11283033
:10097C000A128A11A5250A128A1106300A128A1146
:10098C00A5250A128A110C300A128A11A5250A1201
:10099C008A1141300A128A1156250A128A1108004E
:1009AC0003100030031801308316031386000A125B
:1009BC008A11B0240A128A110A128A1182240A128C
:1009CC008A110310003003180130831203138600C0
:1009DC000A128A118B240A128A11831383120313AD
:1009EC002008DD002108DE000030DE1BFF30DF00B8
:1009FC00E0000A128A1120270A128A1101300A1209
:100A0C008A11A5250A128A11EE2C0A128A110028C5
:100A1C000030F4000030F3000030F2000030F10040
:100A2C0083120313201C1B2D1C2D332D2408F107BE
:100A3C00250803110318013E0319252DF20726087A
:100A4C0003110318013E03192C2DF307270803117A
:100A5C000318013E0319332DF4070130F000031085
:100A6C00A40DA50DA60DA70DF00B352D013003100F
:100A7C00A30CA20CA10CA00CFF3E031D3D2D2308C2
:100A8C00220421042004031D4C2D4D2D162D740819
:100A9C00A3007308A2007208A1007108A00008004E
:100AAC00F1008830F2001330F3007108F039831232
:100ABC00031386000614FD30F00070088605061539
:100ACC00FF30F2070318F30AFF30F307FF30730609
:100ADC00031D722DFF307206031D752D762D662DAC
:100AEC00FB30F000700886058830F2001330F300FC
:100AFC0071080F39F00003300310F00DFF3E031D99
:100B0C00822D0310700D86000614FD30F000700865
:100B1C0086050615FF30F2070318F30AFF30F307BA
:100B2C00FF307306031D9C2DFF307206031D9F2D95
:100B3C00A02D902DFB30F000700886050800F30006
:100B4C008830F1001330F2007308F039831203136C
:100B5C008600FE30F00070088605FD30F00070084D
:100B6C0086050615FF30F1070318F20AFF30F2076D
:100B7C00FF307206031DC42DFF307106031DC72DF7
:100B8C00C82DB82DFB30F000700886058830F100B8
:100B9C001330F20073080F39F00003300310F00D1E
:100BAC00FF3E031DD42D0310700D8600FE30F000A7
:100BBC0070088605FD30F000700886050615FF30BC
:100BCC00F1070318F20AFF30F207FF307206031D1B
:100BDC00F12DFF307106031DF42DF52DE52DFB30A5
:100BEC00F00070088605080003100030031801306F
:100BFC00F10083120313A31F042E052E132EA0093C
:100C0C00A109A209A309A00A0319A10A0319A20A9E
:100C1C000319A30AF1010314F10DA71F162E172EA9
:100C2C00222EA409A509A609A709A40A0319A50A35
:100C3C000319A60A0319A70A270826042504240465
:100C4C000319292E2A2E6E2EF2010314F20D3B2EBF
:100C5C000130F0000310A40DA50DA60DA70DF00B8F
:100C6C00302E0130F0007008F207A71F3E2E3F2EE9
:100C7C002E2E27082302031D4D2E26082202031DAB
:100C8C004D2E25082102031D4D2E24082002031C85
:100C9C00502E512E5F2E2408A0022508031C250F70
:100CAC00A1022608031C260FA2022708031C270FEB
:100CBC00A30201300310A70CA60CA50CA40CFF3E3C
:100CCC00031D602E0130F202031D6D2E6E2E3F2E81
:100CDC007108031D722E7D2EA009A109A209A3097A
:100CEC00A00A0319A10A0319A20A0319A30A0800EE
:100CFC00031000300318013083120313A100AD1F41
:100D0C00882E892E972EAA09AB09AC09AD09AA0A1F
:100D1C000319AB0A0319AC0A0319AD0AA101031498
:100D2C00A10DA91F9A2E9B2EAA2EA609A709A809C8
:100D3C00A909A60A0319A70A0319A80A0319A90ADB
:100D4C000130F0007008A1060030A5000030A400AE
:100D5C000030A3000030A2002D082C042B042A0420
:100D6C000319B92EBA2E082FA0010314A00DCB2EF7
:100D7C000130F0000310AA0DAB0DAC0DAD0DF00B56
:100D8C00C02E0130F0007008A007AD1FCE2ECF2E64
:100D9C00BE2E0130F0000310A20DA30DA40DA50D65
:100DAC00F00BD12E2D082902031DE62E2C0828024B
:100DBC00031DE62E2B082702031DE62E2A08260209
:100DCC00031CE92EEA2EF92E2A08A6022B08031C76
:100DDC002B0FA7022C08031C2C0FA8022D08031C98
:100DEC002D0FA902221401300310AD0CAC0CAB0C6E
:100DFC00AA0CFF3E031DFA2E0130A002031D072F83
:100E0C00082FCF2E2108031D0C2F172FA209A30981
:100E1C00A409A509A20A0319A30A0319A40A031910
:100E2C00A50A2508A9002408A8002308A700220861
:100E3C00A6000800831203136008D8005F08D700CF
:100E4C005E08D6005D08D5000030DC000030DB0009
:100E5C000030DA000130D900732F5808A900570868
:100E6C00A8005608A7005508A6000030AD000030B9
:100E7C00AC000030AB000A30AA000A128A117E26A0
:100E8C000A128A118313831203132908D800280825
:100E9C00D7002708D6002608D5005C08A3005B08FD
:100EAC00A2005A08A1005908A0000030A700003089
:100EBC00A6000030A5000A30A4000A128A110E25E3
:100ECC000A128A118313831203132308DC002208ED
:100EDC00DB002108DA002008D9005808803AD40039
:100EEC0080305402031D842F00305702031D842FC1
:100EFC0000305602031D842F0A3055020318872F29
:100F0C00882F332FEA2F6008A9005F08A8005E081D
:100F1C00A7005D08A6005C08AD005B08AC005A0891
:100F2C00AB005908AA000A128A117E260A128A11ED
:100F3C008313831203132608303E0A128A11562596
:100F4C000A128A11831203136008A3005F08A2001F
:100F5C005E08A1005D08A0005C08A7005B08A60065
:100F6C005A08A5005908A4000A128A11FA250A1277
:100F7C008A118313831203132308E0002208DF0075
:100F8C002108DE002008DD005C08A9005B08A80031
:100F9C005A08A7005908A6000030AD000030AC007C
:100FAC000030AB000A30AA000A128A117E260A12FF
:100FBC008A118313831203132908DC002808DB0031
:100FCC002708DA002608D9005C08803AD400803063
:100FDC005402031DFB2F00305B02031DFB2F00305E
:100FEC005A02031DFB2F013059020318FE2FFF2F4D
:040FFC00892F080031
:02400E003B3A3B
:00000001FF
