:060000000A128A11BF2F55
:100F7E0083010A128A11E12F413083120313930069
:100F8E008C1DCA2FCB2FC72F8C11130808000310EE
:100F9E00003003180130831603139400243083129B
:100FAE0003139400831603138715DF30F0007008C7
:100FBE00870508000A128A11CE270A128A11031019
:100FCE00003003180130831603138800031000301D
:100FDE00031801308312031388000A128A11C327E3
:100FEE000A128A11831203138800F42F0A128A112F
:020FFE000028C9
:02400E003B3A3B
:00000001FF
