:060000000A128A11072814
:10000E0083136030FD000F30FE003830FF00583093
:10001E0084000A128A1544270A128A1183010A12D1
:10002E008A114A2883120313A00040300A128A1143
:10003E00E2200A128A11003083120313A10000304D
:10004E00A2008312031321082007840083130008E3
:10005E000A128A1193200A128A1101308312031395
:10006E00A1070318A20A0030A2072208803AF40062
:10007E0080307402031D452808302102031C4828D5
:10008E00492828280800B33084005830D4000408CA
:10009E00D5000830D6005408840083130008D7001A
:1000AE00D40A5508840057088000D50AD60B52286A
:1000BE000A128A1563270A128A11B3300A128A119C
:1000CE0019200A128A11EB3083160313B000F63092
:1000DE00B1004230B2000A128A11D9220A128A11D4
:1000EE0080300A128A11E2200A128A1100300A1296
:1000FE008A1193200A128A1100300A128A11932053
:10010E000A128A1142300A128A1193200A128A1197
:10011E008F280A128A110028F1008830F20013305D
:10012E00F3007108F0398312031388000814FD30B0
:10013E00F000700888050815FF30F2070318F30A5F
:10014E00FF30F307FF307306031DAF28FF30720632
:10015E00031DB228B328A328FB30F00070088805D1
:10016E008830F2001330F30071080F39F0000330BD
:10017E000310F00DFF3E031DBF280310700D880005
:10018E000814FD30F000700888050815FF30F207DE
:10019E000318F30AFF30F307FF307306031DD92847
:1001AE00FF307206031DDC28DD28CD28FB30F00061
:1001BE00700888050800F1008830F2001330F30053
:1001CE007108F039831203138800FE30F0007008B6
:1001DE008805FD30F000700888050815FF30F2071D
:1001EE000318F30AFF30F307FF307306031D0129CE
:1001FE00FF307206031D04290529F528FB30F00097
:10020E00700888058830F2001330F30071080F393A
:10021E00F00003300310F00DFF3E031D11290310F3
:10022E00700D8800FE30F00070088805FD30F0007B
:10023E00700888050815FF30F2070318F30AFF301F
:10024E00F307FF307306031D2E29FF307206031DC0
:10025E00312932292229FB30F00070088805080068
:10026E00831203132308031D3D2944292208210468
:10027E002004031D4329442957290030A0000030D3
:10028E00A1000030A200B2290130F0007008A307CF
:10029E0001300310A20CA10CA00CFF3E031D50292F
:1002AE00FE302205031D5C295D294B297A29013078
:1002BE00F0007008A3070130A007003003110318E7
:1002CE00013E03196B29A107003003110318013EEB
:1002DE0003197229A20701300310A20CA10CA00C65
:1002EE00FF3E031D7329FF302205031D7F29802940
:1002FE005E298B290130A30201300310A00DA10D40
:10030E00A20DFF3E031D8429A11F8E298F2981294D
:10031E002318922993299929FF30A0057F30A10532
:10032E00FF30A2050310A30C2308F000F101F20127
:10033E0010300310F00DF10DF20DFF3E031DA0293C
:10034E007008A0047108A1047208A2042408031DF9
:10035E00B129B229A217080003100030031801308A
:10036E00F10083120313A31FBD29BE29CC29A009B6
:10037E00A109A209A309A00A0319A10A0319A20A35
:10038E000319A30AF1010314F10DA71FCF29D029D8
:10039E00DB29A409A509A609A709A40A0319A50A18
:1003AE000319A60A0319A70A2708260425042404FC
:1003BE000319E229E329272AF2010314F20DF42985
:1003CE000130F0000310A40DA50DA60DA70DF00B26
:1003DE00E9290130F0007008F207A71FF729F82964
:1003EE00E72927082302031D062A26082202031DD9
:1003FE00062A25082102031D062A24082002031CB2
:10040E00092A0A2A182A2408A0022508031C250FE7
:10041E00A1022608031C260FA2022708031C270F81
:10042E00A30201300310A70CA60CA50CA40CFF3ED2
:10043E00031D192A0130F202031D262A272AF82944
:10044E007108031D2B2A362AA009A109A209A309A6
:10045E00A00A0319A10A0319A20A0319A30A080084
:10046E00031000300318013083120313A100AD1FD7
:10047E00412A422A502AAA09AB09AC09AD09AA0A97
:10048E000319AB0A0319AC0A0319AD0AA10103142F
:10049E00A10DA91F532A542A632AA609A709A80940
:1004AE00A909A60A0319A70A0319A80A0319A90A72
:1004BE000130F0007008A1060030A5000030A40045
:1004CE000030A3000030A2002D082C042B042A04B7
:1004DE000319722A732AC12AA0010314A00D842ABB
:1004EE000130F0000310AA0DAB0DAC0DAD0DF00BED
:1004FE00792A0130F0007008A007AD1F872A882ADC
:10050E00772A0130F0000310A20DA30DA40DA50D46
:10051E00F00B8A2A2D082902031D9F2A2C08280277
:10052E00031D9F2A2B082702031D9F2A2A08260235
:10053E00031CA22AA32AB22A2A08A6022B08031CED
:10054E002B0FA7022C08031C2C0FA8022D08031C2E
:10055E002D0FA902221401300310AD0CAC0CAB0C04
:10056E00AA0CFF3E031DB32A0130A002031DC02AB0
:10057E00C12A882A2108031DC52AD02AA209A30947
:10058E00A409A509A20A0319A30A0319A40A0319A7
:10059E00A50A2508A9002408A8002308A7002208F8
:1005AE00A6000800831603133008A0003108A1002E
:1005BE003208A2000A128A118F230A128A1183139B
:1005CE00831603132008AC002108AD000030AD1BCC
:1005DE00FF30AE00AF000A128A1170260A128A117D
:1005EE002E300A128A1193200A128A1183160313CF
:1005FE003008A0003108A1003208A2000A128A11A8
:10060E008F230A128A118313831603132108831270
:10061E000313A901A90783160313200883120313DA
:10062E00A801A8070A128A1589270A128A118313AC
:10063E00831203132808AB002908AC002A08AD006A
:10064E000A128A1551270A128A1183138312031371
:10065E002B08B1002C08B2002D08B300831603132B
:10066E00300883120313B400831603133108831268
:10067E000313B50083160313320883120313B60057
:10068E000A128A1124250A128A1183138312031364
:10069E003108C1003208C2003308C3000030C40064
:1006AE007A30C5004430C6000A128A1148240A1254
:1006BE008A118313831203134108D1004208D2001A
:1006CE004308D300510883160313A00083120313AB
:1006DE00520883160313A1008312031353088316C3
:1006EE000313A2000A128A118F230A128A1183138E
:1006FE00831603132308AF002208AE002108AD00B5
:10070E002008AC000A128A1170260A128A110800FB
:10071E0083160313200883120313C70083160313D3
:10072E00210883120313C8008316031322088312B1
:10073E000313C9000310480D490DCF00CF08031D48
:10074E00A92BAA2BB52B003083160313A300003060
:10075E00A2000030A1000030A000472C8316031326
:10076E00200883120313C700831603132108831274
:10077E000313C80083160313220883120313C90040
:10078E0017300310C90CC80CC70CFF3E031DC82B35
:10079E004708CA0083160313A117FF30A005FF30C8
:1007AE00A1050030A205200883120313CB00831687
:1007BE000313210883120313CC008316031322089C
:1007CE0083120313CD00CE018E30CF02CF1FF02B3C
:1007DE00F12B0B2C4F08803A8F3E0318F72BF82B7A
:1007EE00F92BAA2B01300310CE0CCD0CCC0CCB0C5C
:1007FE00FF3E031DFA2B0130C7004708CF07031D2C
:10080E00092C0A2CF92B222C18304F02031C102C09
:10081E00112C1D2CAA2B0130C7000310CB0DCC0DB3
:10082E00CD0DCE0DC70B142C0130CF02CF08031DFA
:10083E00212C222C122C4A08031D262C312CCB09DC
:10084E00CC09CD09CE09CB0A0319CC0A0319CD0A5E
:10085E000319CE0A4E0883160313A3008312031343
:10086E004D0883160313A200831203134C0883163C
:10087E000313A100831203134B0883160313A00066
:10088E000800831203134108B7004208B80043085A
:10089E00B9000310380D390DBB00BB08031D582CD1
:1008AE00592C602C0030C1000030C2000030C30053
:1008BE00232D4408B7004508B8004608B9000310B8
:1008CE00380D390DC000C008031D6E2C6F2C762C10
:1008DE000030C1000030C2000030C300232D40089C
:1008EE007B3EB7003708BB074108B7004208B80087
:1008FE004308B90010300310B90CB80CB70CFF3E0A
:10090E00031D822C3708C0004408B7004508B80004
:10091E004608B90010300310B90CB80CB70CFF3EE6
:10092E00031D922C3708BA003A08C0068030B70073
:10093E003708C005C217C517FF30C405FF30C505FF
:10094E000030C6050030BC000030BD000030BE00D7
:10095E000730BF00411CB42CB52CC52C4408BC0775
:10096E00450803110318450A0319BE2CBD07460896
:10097E0003110318460A0319C52CBE0701300310D4
:10098E00C30CC20CC10CFF3E031DC62C013003105C
:10099E00C40DC50DC60DFF3E031DCE2C0130BF028A
:1009AE00031DDA2CDB2CB12C0930BF00411CE02CCE
:1009BE00E12CF12C4408BC07450803110318450A25
:1009CE000319EA2CBD07460803110318460A03193A
:1009DE00F12CBE0701300310C30CC20CC10CFF3E3C
:1009EE00031DF22C01300310BE0CBD0CBC0CFF3EDF
:1009FE00031DFA2C0130BF02031D062D072DDD2C21
:100A0E003C08A0003D08A1003E08A2003B08B7002C
:100A1E003708A3004008B8003808A4000A128A114B
:100A2E0037210A128A118313831203132008C1007F
:100A3E002108C2002208C3000800831203133108E4
:100A4E00FA003208FB003308FC0003107B0D7C0D0E
:100A5E00B0003408FA003508FB003608FC0003101D
:100A6E007B0D7C0DAF003008031D3E2D4E2D2F0843
:100A7E0030020318432D442D552D3003FF3A2F0716
:100A8E00FA0019307A02031C4D2D4E2D552D3408C7
:100A9E00B1003508B2003608B3006F2E2F08031DC3
:100AAE00592D692D30082F0203185E2D5F2D702DE4
:100ABE002F03FF3A3007FA0019307A02031C682D13
:100ACE00692D702D3108B1003208B2003308B30021
:100ADE006F2E0630AE00B31F752D762D772DAE1707
:100AEE00B61F7A2D7B2D7C2D2E17B217FF30B10538
:100AFE00FF30B2050030B305B517FF30B405FF3037
:100B0E00B5050030B6052F08300203188F2D902D35
:100B1E00BC2D01300310B40DB50DB60DFF3E031DF7
:100B2E00912D0130AF022F08300603199F2DA02DF5
:100B3E00B52D0130AE022E080739031DA72DA82DA5
:100B4E00902DB52D01300310B30CB20CB10CFF3E3D
:100B5E00031DAA2D0130FA007A08B00730082F06BF
:100B6E00031DBA2DBB2DA92DED2D30082F02031814
:100B7E00C12DC22DED2D01300310B10DB20DB30DEF
:100B8E00FF3E031DC32D0130B0022F08300603199E
:100B9E00D12DD22DE72D0130AE022E080739031DBF
:100BAE00D92DDA2DC22DE72D01300310B60CB50C60
:100BBE00B40CFF3E031DDC2D0130FA007A08AF079E
:100BCE0030082F06031DEC2DED2DDB2DAE1FF02D65
:100BDE00F12D072EFF30B106FF30B206FF30B306FF
:100BEE000130B107003003110318013E0319002E26
:100BFE00B207003003110318013E0319072EB30785
:100C0E002E1F0A2E0B2E212EFF30B406FF30B506F6
:100C1E00FF30B6060130B407003003110318013E51
:100C2E0003191A2EB507003003110318013E0319DC
:100C3E00212EB6070310003003180130AE00310824
:100C4E00B407320803110318320A03192F2EB50701
:100C5E00330803110318330A0319362EB607B61FCD
:100C6E00392E3A2E532EFF30B406FF30B506FF3024
:100C7E00B6060130B407003003110318013E031904
:100C8E00492EB507003003110318013E0319502EEB
:100C9E00B607AE010314AE0D3408A0003508A1004E
:100CAE003608A2003008FA007A08A3002E08FB00CE
:100CBE007B08A4000A128A1137210A128A118313A3
:100CCE00831203132008B1002108B2002208B300DA
:100CDE000800831603132F08A7002E08A6002D0860
:100CEE00A5002C08A4000030AB000030AA00003094
:100CFE00A9000130A800FD2E8316031327088312C6
:100D0E000313A90083160313260883120313A800E6
:100D1E0083160313250883120313A70083160313E8
:100D2E00240883120313A6000030AD000030AC007F
:100D3E000030AB000A30AA000A128A1137220A12BA
:100D4E008A11831383120313290883160313A70032
:100D5E0083120313280883160313A60083120313AA
:100D6E00270883160313A500831203132608831680
:100D7E000313A4002B0883120313A300831603137B
:100D8E002A0883120313A200831603132908831261
:100D9E000313A10083160313280883120313A00064
:100DAE000030A7000030A6000030A5000A30A400D5
:100DBE000A128A15B8270A128A1183138312031393
:100DCE00230883160313AB00831203132208831622
:100DDE000313AA0083120313210883160313A90019
:100DEE0083120313200883160313A8002708803AE2
:100DFE0083120313D00080305002031D122F0030D7
:100E0E00831603132602031D122F00302502031D25
:100E1E00122F0A302402831203130318172F182FD0
:100E2E00832EE22F831603132F0883120313A900B8
:100E3E00831603132E0883120313A80083160313BD
:100E4E002D0883120313A700831603132C08831295
:100E5E000313A600831603132B0883120313AD008E
:100E6E00831603132A0883120313AC00831603138D
:100E7E00290883120313AB00831603132808831269
:100E8E000313AA000A128A1137220A128A11831337
:100E9E00831203132608303E0A128A1193200A1277
:100EAE008A11831603132F0883120313A3008316CC
:100EBE0003132E0883120313A200831603132D08A7
:100ECE0083120313A100831603132C08831203133A
:100EDE00A000831603132B0883120313A700831697
:100EEE0003132A0883120313A6008316031329087B
:100EFE0083120313A500831603132808831203130A
:100F0E00A4000A128A11B3210A128A1183138312C2
:100F1E000313230883160313AF008312031322084F
:100F2E0083160313AE0083120313210883160313D3
:100F3E00AD0083120313200883160313AC002B0895
:100F4E0083120313A900831603132A0883120313B3
:100F5E00A80083160313290883120313A700831610
:100F6E000313280883120313A6000030AD000030CF
:100F7E00AC000030AB000A30AA000A128A113722E8
:100F8E000A128A118313831203132908831603137B
:100F9E00AB0083120313280883160313AA008312CF
:100FAE000313270883160313A900831203132608BD
:100FBE0083160313A800831603132B08803A83129B
:100FCE000313D00080305002031DF92F003083161A
:100FDE0003132A02031DF92F00302902031DF92FD6
:100FEE0001302802831203130318FE2FFF2F192F2F
:020FFE000800E9
:101E70001F3410341F3410341F341F341F341F34E8
:101E80007E088A007F08820040270A128A15800097
:101E9000840A04087D0603190034FF0A0319FE0AA8
:101EA000442F831203132D082C042B040319592FDC
:101EB0005A2F5C2F8030AD062B08AB002C08AC00ED
:101EC0002D08AD0008000310003003180130831600
:101ED0000313880002300A128A11E2200A128A15BE
:101EE00028300A128A11E2200A128A1506300A12D4
:101EF0008A11E2200A128A150C300A128A11E22095
:101F00000A128A1541300A128A1193200A128A1580
:101F10000800031000300318013083120313A700D8
:101F2000A91F932F942F9C2FA809A909A80A031968
:101F3000A90AA7010314A70D2808A0002908A100D9
:101F4000A2018E30F8007808A3002708F90079086C
:101F5000A4000A128A1137210A128A1583138312E8
:101F600003132008A8002108A9002208AA000800DD
:101F70000030F4000030F3000030F2000030F100D7
:101F800083120313201CC52FC62FDD2F2408F10751
:101F9000250803110318013E0319CF2FF207260865
:101FA00003110318013E0319D62FF3072708031165
:101FB0000318013E0319DD2FF4070130F000031070
:101FC000A40DA50DA60DA70DF00BDF2F01300310FA
:101FD000A30CA20CA10CA00CFF3E031DE72F2308AD
:101FE000220421042004031DF62FF72FC02F7408AC
:101FF000A3007308A2007208A1007108A0000800E5
:02400E003B3F36
:00000001FF
