:060000000A128A11552FBF
:100EAA0083010A128A11832FFF30F007FF300311E2
:100EBA000318013E0319622FF107FF3003110318CB
:100ECA00013E0319692FF207FF3003110318013E8F
:100EDA000319702FF307FF307306031D7E2FFF30AF
:100EEA007206031D7E2FFF307106031D7E2FFF3011
:100EFA007006031D812F822F592F0800031000301E
:100F0A0003180130831603138500031000300318F9
:100F1A0001308600031000300318013087000310E7
:100F2A000030031801308800031000300318013024
:100F3A0089000030F5000030F6007608803AF400A7
:100F4A0080307402031DAB2F08307502031CAE2FCC
:100F5A00AF2FB02F9E2F0130F400750AB62F031061
:100F6A00F40DFF3E031DB42F74088312031385008A
:100F7A000130F400750AC32F0310F40DFF3E031D60
:100F8A00C12F740886000130F400750ACE2F0310B1
:100F9A00F40DFF3E031DCC2F740887000130F400C6
:100FAA00750AD92F0310F40DFF3E031DD72F7408BD
:100FBA0088000130F400750AE42F0310F40DFF3E97
:100FCA00031DE22F740889000030F3000030F2009C
:100FDA002730F1001030F0000A128A1159270A123C
:100FEA008A110130F5070318F60A0030F607A22F16
:060FFA000A128A11002812
:00000001FF
