:060000000A128A11C32F51
:100F860083010A128A11DC2F831203138C1CCC2FC7
:100F9600CD2FC72F8C10FF308600080003100030BD
:100FA60003180130831203139100043092001215C6
:100FB600080003100030031801308316031388005D
:100FC60003100030031801308600031000300318A8
:100FD60001308312031388000A128A11D1270A12DC
:100FE6008A118312031388090A128A11C7270A1263
:0A0FF6008A11F42F0A128A11002854
:02400E003B3A3B
:00000001FF
