:060000000A128A11B92B5F
:10073000EE34DE34BE347E34ED34DD34BD347D340D
:10074000EB34DB34BB347B34E734D734B734773421
:100750007E088A007F088200A8230A128A1180007E
:10076000840A04087D0603190034FF0A0319FE0AEF
:10077000AC2B83136330FD000330FE009830FF0084
:10078000533084000A128A11AC230A128A118301A1
:100790000A128A11F12B031000300318013083165E
:1007A0000313880002300A128A11B0240A128A1137
:1007B00028300A128A11B0240A128A1106300A124D
:1007C0008A11B0240A128A110C300A128A11B0243C
:1007D0000A128A1141300A128A1161240A128A11FE
:1007E00008000A128A11CB230A128A110310003062
:1007F000031801308316031388000A128A11052595
:100800000A128A1183120313CF00D001D101D20141
:100810005208CE005108CD005008CC004F08CB0044
:100820000A128A118C260A128A11FD2B0A128A11C9
:1008300000280030F4000030F3000030F2000030F7
:10084000F10083120313201C262C272C3E2C240895
:10085000F107250803110318013E0319302CF20794
:10086000260803110318013E0319372CF307270844
:1008700003110318013E03193E2CF4070130F00068
:100880000310A40DA50DA60DA70DF00B402C0130F3
:100890000310A30CA20CA10CA00CFF3E031D482CBE
:1008A0002308220421042004031D572C582C212C3A
:1008B0007408A3007308A2007208A1007108A000C8
:1008C0000800F1008830F2001330F3007108F039AD
:1008D0008312031388000814FD30F00070088805A7
:1008E0000815FF30F2070318F30AFF30F307FF3053
:1008F0007306031D7D2CFF307206031D802C812C96
:10090000712CFB30F000700888058830F20013303D
:10091000F30071080F39F00003300310F00DFF3EB3
:10092000031D8D2C0310700D88000814FD30F0009D
:10093000700888050815FF30F2070318F30AFF3026
:10094000F307FF307306031DA72CFF307206031D4B
:10095000AA2CAB2C9B2CFB30F000700888050800FB
:10096000F1008830F2001330F3007108F03983127F
:1009700003138800FE30F00070088805FD30F00099
:10098000700888050815FF30F2070318F30AFF30D6
:10099000F307FF307306031DCF2CFF307206031DD3
:1009A000D22CD32CC32CFB30F00070088805883083
:1009B000F2001330F30071080F39F0000330031018
:1009C000F00DFF3E031DDF2C0310700D8800FE307C
:1009D000F00070088805FD30F000700888050815E3
:1009E000FF30F2070318F30AFF30F307FF307306F6
:1009F000031DFC2CFF307206031DFF2C002DF02C74
:100A0000FB30F000700888050800003083120313E3
:100A1000B1000030B200203084005330F0000408F0
:100A2000F1001030F2007008840083130008F30016
:100A3000F00A7108840073088000F10AF20B132D8C
:100A40000310003003180130831603138600F030C2
:100A50008312031386000608F03A0319302D312D56
:100A60002B2D0608B0000310003003180130831648
:100A7000031386000F308312031386000608F0006C
:100A80007008B0044B2D013083120313B107031813
:100A9000B20A0030B2073108203E840083130008F8
:100AA00030060319542D552D622D3208803AF0007E
:100AB00080307002031D5E2D10303102031C612D49
:100AC000622D432D831203133108080003100030F8
:100AD00003180130F10083120313A31F702D712D31
:100AE0007F2DA009A109A209A309A00A0319A10A3F
:100AF0000319A20A0319A30AF1010314F10DA71F98
:100B0000822D832D8E2DA409A509A609A709A40A63
:100B10000319A50A0319A60A0319A70A2708260418
:100B2000250424040319952D962DDA2DF2010314C2
:100B3000F20DA72D0130F0000310A40DA50DA60D98
:100B4000A70DF00B9C2D0130F0007008F207A71FD5
:100B5000AA2DAB2D9A2D27082302031DB92D260897
:100B60002202031DB92D25082102031DB92D2408D9
:100B70002002031CBC2DBD2DCB2D2408A00225086E
:100B8000031C250FA1022608031C260FA20227081A
:100B9000031C270FA30201300310A70CA60CA50C01
:100BA000A40CFF3E031DCC2D0130F202031DD92DF4
:100BB000DA2DAB2D7108031DDE2DE92DA009A10949
:100BC000A209A309A00A0319A10A0319A20A031979
:100BD000A30A080003100030031801308312031326
:100BE000A100AD1FF42DF52D032EAA09AB09AC0908
:100BF000AD09AA0A0319AB0A0319AC0A0319AD0A15
:100C0000A1010314A10DA91F062E072E162EA60959
:100C1000A709A809A909A60A0319A70A0319A80A76
:100C20000319A90A0130F0007008A1060030A500E0
:100C30000030A4000030A3000030A2002D082C04D6
:100C40002B042A040319252E262E742EA00103142A
:100C5000A00D372E0130F0000310AA0DAB0DAC0D26
:100C6000AD0DF00B2C2E0130F0007008A007AD1F69
:100C70003A2E3B2E2A2E0130F0000310A20DA30DB8
:100C8000A40DA50DF00B3D2E2D082902031D522E9B
:100C90002C082802031D522E2B082702031D522E5A
:100CA0002A082602031C552E562E652E2A08A60257
:100CB0002B08031C2B0FA7022C08031C2C0FA802C7
:100CC0002D08031C2D0FA902221401300310AD0CB6
:100CD000AC0CAB0CAA0CFF3E031D662E0130A0022B
:100CE000031D732E742E3B2E2108031D782E832E98
:100CF000A209A309A409A509A20A0319A30A0319B1
:100D0000A40A0319A50A2508A9002408A800230895
:100D1000A7002208A6000800831203134E088316BA
:100D20000313AD00831203134D0883160313AC00A5
:100D3000831203134C0883160313AB0083120313AF
:100D40004B0883160313AA000030B1000030B00036
:100D50000030AF000130AE00272F831603132D089B
:100D600083120313A900831603132C0883120313A1
:100D7000A800831603132B0883120313A7008316FE
:100D800003132A0883120313A6000030AD000030BD
:100D9000AC000030AB000A30AA000A128A11EA2522
:100DA0000A128A118313831203132908831603136B
:100DB000AD0083120313280883160313AC008312BB
:100DC0000313270883160313AB00831203132608AB
:100DD00083160313AA00310883120313A30083169A
:100DE0000313300883120313A200831603132F0882
:100DF00083120313A100831603132E088312031317
:100E0000A0000030A7000030A6000030A5000A3086
:100E1000A4000A128A1119240A128A118313831258
:100E20000313230883160313B1008312031322084C
:100E300083160313B00083120313210883160313D0
:100E4000AF0083120313200883160313AE002D088E
:100E5000803A83120313CA0080304A02031D3C2FDC
:100E60000030831603132C02031D3C2F00302B028D
:100E7000031D3C2F0A302A02831203130318412F4B
:100E8000422FAD2EE22F4E08A9004D08A8004C08B5
:100E9000A7004B08A600831603133108831203131F
:100EA000AD0083160313300883120313AC008316BE
:100EB00003132F0883120313AB00831603132E08AA
:100EC00083120313AA000A128A11EA250A128A1150
:100ED0008313831203132608303E0A128A116124F9
:100EE0000A128A11831203134E08A3004D08A200B0
:100EF0004C08A1004B08A00083160313310883128D
:100F00000313A70083160313300883120313A600EC
:100F1000831603132F0883120313A50083160313EC
:100F20002E0883120313A4000A128A1166250A12DE
:100F30008A118313831203132308CE002208CD00E5
:100F40002108CC002008CB0083160313310883123C
:100F50000313A90083160313300883120313A80098
:100F6000831603132F0883120313A700831603139A
:100F70002E0883120313A6000030AD000030AC0031
:100F80000030AB000A30AA000A128A11EA250A12C0
:100F90008A11831383120313290883160313B100E4
:100FA00083120313280883160313B000831203135C
:100FB000270883160313AF00831203132608831632
:100FC0000313AE00831603133108803A8312031310
:100FD000CA0080304A02031DF92F00308316031324
:100FE0003002031DF92F00302F02031DF92F0130AD
:100FF0002E02831203130318FE2FFF2F432F080026
:02400E003B3F36
:00000001FF
