:060000000A128A11F52E20
:100DEA0083010A128A11142FF00070088312031368
:100DFA0099000C1E012F022FFE2E0C120800031060
:100E0A000030031801308316031399008312031369
:100E1A0098178316031318169813981608000310C8
:100E2A0000300318013083160313880003100030C2
:100E3A00031801308312031388000A128A11362715
:100E4A000A128A110A128A1104270A128A116130B7
:100E5A000A128A11F9260A128A112C2F0A128A11E9
:100E6A00002803100030031801308316031386008C
:100E7A0002300A128A11AB270A128A1128300A1282
:100E8A008A11AB270A128A1106300A128A11AB2775
:100E9A000A128A110C300A128A11AB270A128A1115
:100EAA0041300A128A115C270A128A110800F300DB
:100EBA008830F1001330F2007308F03983120313FB
:100ECA0086000614FD30F000700886050615FF300E
:100EDA00F1070318F20AFF30F207FF307206031D0A
:100EEA00782FFF307106031D7B2F7C2F6C2FFB3070
:100EFA00F000700886058830F1001330F20073089C
:100F0A000F39F00003300310F00DFF3E031D882F48
:100F1A000310700D86000614FD30F0007008860577
:100F2A000615FF30F1070318F20AFF30F207FF3007
:100F3A007206031DA22FFF307106031DA52FA62FCF
:100F4A00962FFB30F000700886050800F300883001
:100F5A00F1001330F2007308F0398312031386008C
:100F6A00FE30F00070088605FD30F0007008860536
:100F7A000615FF30F1070318F20AFF30F207FF30B7
:100F8A007206031DCA2FFF307106031DCD2FCE2F07
:100F9A00BE2FFB30F000700886058830F100133050
:100FAA00F20073080F39F00003300310F00DFF3E12
:100FBA00031DDA2F0310700D8600FE30F000700852
:100FCA008605FD30F000700886050615FF30F1072A
:100FDA000318F20AFF30F207FF307206031DF72FDB
:100FEA00FF307106031DFA2FFB2FEB2FFB30F000A9
:060FFA00700886050800E6
:02400E003B3A3B
:00000001FF
