:060000000A128A118D2F87
:100F1A0083010A128A11BE2F831203138C1D962F86
:100F2A00972F912F130808001830F00070088316C5
:100F3A000313870436308312031394008030831618
:100F4A0003139100023093000800F0007008831226
:100F5A00031393001416031000300318013088009D
:100F6A008C1DB82FB92FB52FF030880014128C11B0
:100F7A000800031000300318013083160313880099
:100F8A0003100030031801308600031000300318E4
:100F9A000130831203138600031000300318013056
:100FAA0088000A128A1199270A128A110A128A11CA
:100FBA0091270A128A1183120313880005300A1234
:100FCA008A11AA270A128A1107300A128A11AA2735
:100FDA000A128A1110300A128A11AA270A128A11D1
:100FEA000310003003180130831203138800FC2F0A
:060FFA000A128A11002812
:00000001FF
