:060000000A128A11722FA2
:100EE40083010A128A11A02FFF30F007FF3003118B
:100EF4000318013E03197F2FF107FF300311031874
:100F0400013E0319862FF207FF3003110318013E37
:100F140003198D2FF307FF307306031D9B2FFF303A
:100F24007206031D9B2FFF307106031D9B2FFF309C
:100F34007006031D9E2F9F2F762F0800031000308C
:100F440003180130831603138500031000300318BF
:100F540001308600031000300318013087000310AD
:100F640000300318013088000310003003180130EA
:100F74008900FF30831203138600FF308700FF309F
:100F84008800FF308900FF3085000030F300003016
:100F9400F2002730F1001030F0000A128A1176278F
:100FA4000A128A110310003003180130831203134C
:100FB400860003100030031801308700031000304E
:100FC4000318013088000310003003180130890031
:100FD400031000300318013085000030F3000030A6
:100FE400F2002730F1001030F0000A128A1176273F
:0C0FF4000A128A11BB2F0A128A11002871
:02400E003E3F33
:00000001FF
