:060000000A128A11162FFE
:100E2C0083010A128A114B2F28308312031394006A
:100E3C000800013083160313910083128C1D272F99
:100E4C00282F232F8C110800F00070088312031335
:100E5C0093008C1D322F332F2F2F8C11080008304C
:100E6C0083160313910083128C1D3D2F3E2F392FB7
:100E7C000F308800103083160313910083128C1DE1
:100E8C00482F492F442F1308080003100030031873
:100E9C00013083160313880003100030031801304F
:100EAC008312031388000030F2000030F30001308D
:100EBC00F2070318F30A0030F3077308803AF100C5
:100ECC0081307102031D6C2FF4307202031C6F2FE2
:100EDC00702F5D2F0A128A111A270A128A110A1210
:100EEC008A111F270A128A1103300A128A112A2723
:100EFC000A128A110A128A1135270A128A118312D0
:100F0C00031388000030F2000030F3000130F207C8
:100F1C000318F30A0030F3077308803AF1008130AC
:100F2C007102031D9B2FF4307202031C9E2F9F2F06
:100F3C008C2F0A128A1135270A128A118312031375
:100F4C0088000030F2000030F3000130F207031883
:100F5C00F30A0030F3077308803AF1008130710214
:100F6C00031DBA2FF4307202031CBD2FBE2FAB2F02
:100F7C000A128A1135270A128A1183120313880068
:100F8C000030F2000030F3000130F2070318F30ACE
:100F9C000030F3077308803AF10081307102031DB1
:100FAC00D92FF4307202031CDC2FDD2FCA2F0A124A
:100FBC008A1135270A128A11831203138800003014
:100FCC00F2000030F3000130F2070318F30A00308E
:100FDC00F3077308803AF10081307102031DF82F7A
:100FEC00F4307202031CFB2FFC2FE92FFC2F0A128A
:040FFC008A1100282E
:00000001FF
