:060000000A128A11F92E1C
:100DF20083010A128A11172F831203138C1E022FEA
:100E0200032FFD2E8C121A080800203083160313BC
:100E12009800181580308312031398001930831636
:100E220003139900831203131816080003100030ED
:100E3200031801308316031388000A128A11362719
:100E42000A128A110A128A1106270A128A110A1232
:100E52008A11FD260A128A110A128A115C270A12C5
:100E62008A11282F0A128A11002803100030031851
:100E7200013083160313860002300A128A11AB274F
:100E82000A128A1128300A128A11AB270A128A1111
:100E920006300A128A11AB270A128A110C300A1282
:100EA2008A11AB270A128A1141300A128A115C2771
:100EB2000A128A110800F300F430F1000130F20046
:100EC2007308F0398312031386000614FD30F00014
:100ED200700886050615FF30F1070318F20AFF3085
:100EE200F207FF307206031D782FFF307106031DD3
:100EF2007B2F7C2F6C2FFB30F00070088605F430BE
:100F0200F1000130F20073080F39F00003300310D2
:100F1200F00DFF3E031D882F0310700D860006148E
:100F2200FD30F000700886050615FF30F107031842
:100F3200F20AFF30F207FF307206031DA22FFF30C4
:100F42007106031DA52FA62F962FFB30F000700807
:100F520086050800F300F430F1000130F200730856
:100F6200F039831203138600FE30F0007008860504
:100F7200FD30F000700886050615FF30F1070318F2
:100F8200F20AFF30F207FF307206031DCA2FFF304C
:100F92007106031DCD2FCE2FBE2FFB30F00070083F
:100FA2008605F430F1000130F20073080F39F000C9
:100FB20003300310F00DFF3E031DDA2F0310700DF6
:100FC2008600FE30F00070088605FD30F0007008E3
:100FD20086050615FF30F1070318F20AFF30F20703
:100FE200FF307206031DF72FFF307106031DFA2F23
:0E0FF200FB2FEB2FFB30F00070088605080087
:02400E003B3A3B
:00000001FF
