:060000000A128A1110280B
:10000800FF000308F0000408F1000A08F2007E0867
:10001800F3000A128A112A280A128A1145280310A5
:1000280000300318013083160313880003100030D2
:10003800031801308312031388000A128A113D2025
:100048000A128A1126280A128A1110288312031309
:100058008B1C2F28302832288B1088097308FE0043
:1000680072088A007108840070088300FF0E7F0EF2
:100078000900831603130117831203130B168B173A
:0A008800080083010A128A111328F0
:02400E003B3A3B
:00000001FF
